:107000000C9434380C9446380C9446380C9446381A
:107010000C9446380C9446380C9446380C944638F8
:107020000C9446380C9446380C9446380C944638E8
:107030000C9446380C9446380C9446380C944638D8
:107040000C9446380C9446380C9446380C944638C8
:107050000C9446380C9446380C9446380C944638B8
:107060000C9446380C94463811241FBECFEFD8E05C
:10707000DEBFCDBF12E0A0E0B1E001C01D92AD3097
:10708000B107E1F70E9448380C94013A0C9400389B
:107090000F931F9380E090E00E94E739082F81E072
:1070A00090E00E94E73910E0813009F411E00130EE
:1070B00011F41123A1F08FEF84B981E085B90E940A
:1070C0009E39112339F00E94D73881E090E060E0CA
:1070D0000E94EF390E94B9390E94E138FBCF0C942D
:1070E00000002A9A80E090E01F910F9108950F937D
:1070F0001F93CF93DF93EC01DB018FB7F894D69504
:10710000DC2FCC27D795C79507B600FCFDCFF999A2
:10711000FECF83E0FE0180935700E89540E050E009
:1071200061E09C9111968C911197129607B600FC24
:10713000FDCFF999FECFFA01EC0FFD1F382F20E0AB
:107140008901090F111D080160935700E89511246A
:107150004E5F5F4F4038510521F707B600FCFDCF69
:10716000F999FECF85E0FE0180935700E89507B6B8
:1071700000FCFDCFF999FECF81E180935700E8959F
:107180008FB7DF91CF911F910F9108952FEF24B901
:10719000299A21E020930001FC018191809306014E
:1071A00060930701F0930901E0930801089580E1DD
:1071B0008093060180E50E94AA3981E080930A014C
:1071C00008958FEF84B980910001882309F4B5C038
:1071D00080910601843329F1853330F4803151F0F8
:1071E000813309F0A8C084C08633D1F1873309F018
:1071F000A2C06BC0E0910801F09109018081833049
:1072000009F072C080910701823009F06DC0809151
:107210000A01882309F068C080E50E94AA3981E04C
:107220001CC080910A01813009F05EC08091070185
:10723000833009F059C0E0910801F09109012181E2
:1072400030E0908180E0282B392B3093050120938A
:10725000040184E70E94AA3982E080930A016BC08E
:1072600080910A01823051F580910701813831F512
:107270002A9A60910801709109018091010190E0C2
:107280000E94773886E70E94AA39809101018F5FBA
:1072900080930101809102019091030180589F4FDA
:1072A0009093030180930201209104013091050124
:1072B0008217930709F03FC083E0CFCF10920A01F5
:1072C0008FE70E94AA392B9A36C080910A01833039
:1072D00049F480910701813029F487E70E94AA3997
:1072E00084E0BBCF10920A018FE70E94AA3923C025
:1072F00080910A018430D1F4809107018130B1F48A
:1073000081E70E94AA3980E090E061E00E94EF39B5
:1073100088EE93E020E931E0F9013197F1F7019728
:10732000D9F710920A010C94000005C08FE70E9463
:10733000AA3910920A011092000108951092C50016
:1073400087E68093C40088E18093C10086E0809343
:10735000C2000895982F8091C00085FFFCCF9093C4
:10736000C60008958091C00087FFFCCF8091C600C1
:1073700008958FEF8AB98091C00087FF26C0809161
:107380000C01882341F48091C60080930C0281E0B7
:1073900080930C01089590910B018091C600E92F14
:1073A000F0E0E35FFE4F8083692F6F5F60930B0116
:1073B00080910C02681751F410920B0110920C018D
:1073C0008DE091E00E94C63808955C9A0895F9997D
:1073D000FECF92BD81BDF89A992780B50895262FDA
:1073E000F999FECF92BD81BDF89A019700B40216BB
:1073F00039F01FBA20BD0FB6F894FA9AF99A0FBE69
:067400000895F894FFCF8F
:040000030000700089
:00000001FF
